{
  "contractName": "Shipping",
  "abi": [
    {
      "inputs": [],
      "stateMutability": "nonpayable",
      "type": "constructor"
    },
    {
      "anonymous": false,
      "inputs": [
        {
          "indexed": false,
          "internalType": "string",
          "name": "description",
          "type": "string"
        }
      ],
      "name": "LogNewAlert",
      "type": "event"
    },
    {
      "inputs": [],
      "name": "Shipped",
      "outputs": [],
      "stateMutability": "nonpayable",
      "type": "function"
    },
    {
      "inputs": [],
      "name": "Delivered",
      "outputs": [],
      "stateMutability": "nonpayable",
      "type": "function"
    },
    {
      "inputs": [],
      "name": "Status",
      "outputs": [
        {
          "internalType": "string",
          "name": "",
          "type": "string"
        }
      ],
      "stateMutability": "view",
      "type": "function",
      "constant": true
    }
  ],
  "bytecode": "0x608060405234801561000f575f80fd5b505f805f6101000a81548160ff021916908360028111156100335761003261003d565b5b021790555061006a565b7f4e487b71000000000000000000000000000000000000000000000000000000005f52602160045260245ffd5b610475806100775f395ff3fe608060405234801561000f575f80fd5b506004361061003f575f3560e01c806345f09ce914610043578063779822f7146100615780637e59301e1461006b575b5f80fd5b61004b610075565b6040516100589190610322565b60405180910390f35b610069610097565b005b6100736100f7565b005b60605f805f9054906101000a900460ff16905061009181610157565b91505090565b60025f806101000a81548160ff021916908360028111156100bb576100ba610342565b5b02179055507fca75c80642b93c980135b8355995abae3ab06033dc81f956b3824323b4903ef56040516100ed906103b9565b60405180910390a1565b60015f806101000a81548160ff0219169083600281111561011b5761011a610342565b5b02179055507fca75c80642b93c980135b8355995abae3ab06033dc81f956b3824323b4903ef560405161014d90610421565b60405180910390a1565b606081600281111561016c5761016b610342565b5b5f600281111561017f5761017e610342565b5b036101c1576040518060400160405280600781526020017f50656e64696e67000000000000000000000000000000000000000000000000008152509050610293565b8160028111156101d4576101d3610342565b5b600160028111156101e8576101e7610342565b5b0361022a576040518060400160405280600781526020017f53686970706564000000000000000000000000000000000000000000000000008152509050610293565b81600281111561023d5761023c610342565b5b6002808111156102505761024f610342565b5b03610292576040518060400160405280600981526020017f44656c69766572656400000000000000000000000000000000000000000000008152509050610293565b5b919050565b5f81519050919050565b5f82825260208201905092915050565b5f5b838110156102cf5780820151818401526020810190506102b4565b5f8484015250505050565b5f601f19601f8301169050919050565b5f6102f482610298565b6102fe81856102a2565b935061030e8185602086016102b2565b610317816102da565b840191505092915050565b5f6020820190508181035f83015261033a81846102ea565b905092915050565b7f4e487b71000000000000000000000000000000000000000000000000000000005f52602160045260245ffd5b7f596f7572207061636b61676520686173206172726976656400000000000000005f82015250565b5f6103a36018836102a2565b91506103ae8261036f565b602082019050919050565b5f6020820190508181035f8301526103d081610397565b9050919050565b7f596f7572207061636b61676520686173206265656e20736869707065640000005f82015250565b5f61040b601d836102a2565b9150610416826103d7565b602082019050919050565b5f6020820190508181035f830152610438816103ff565b905091905056fea26469706673582212205af5505bcd7d9c83331f7c98ae3658267fe13fd297de9082ac4006ee27f3dedd64736f6c63430008150033",
  "immutableReferences": {},
  "source": "pragma solidity >=0.4.25 <0.9.0;\n\ncontract Shipping {\n    // Our predefined values for shipping listed as enums\n    enum ShippingStatus { Pending, Shipped, Delivered }\n\n    // Save enum ShippingStatus in variable status\n    ShippingStatus private status;\n\n    // Event to launch when package has arrived\n    event LogNewAlert(string description);\n\n    // This initializes our contract state (sets enum to Pending once the program starts)\n    constructor() public {\n        status = ShippingStatus.Pending;\n    }\n    // Function to change to Shipped\n    function Shipped() public {\n        status = ShippingStatus.Shipped;\n        emit LogNewAlert(\"Your package has been shipped\");\n    }\n\n    // Function to change to Delivered\n    function Delivered() public {\n        status = ShippingStatus.Delivered;\n        emit LogNewAlert(\"Your package has arrived\");\n    }\n\n    // Function to get the status of the shipping\n    function getStatus(ShippingStatus _status) internal pure returns (string memory) {\n     // Check the current status and return the correct name\n     if (ShippingStatus.Pending == _status) return \"Pending\";\n     if (ShippingStatus.Shipped == _status) return \"Shipped\";\n     if (ShippingStatus.Delivered == _status) return \"Delivered\";\n    }\n\n   // Get status of your shipped item\n    function Status() public view returns (string memory) {\n         ShippingStatus _status = status;\n         return getStatus(_status);\n    }\n}",
  "sourcePath": "/home/lenya/SolidityShipping/contracts/Shipping.sol",
  "compiler": {
    "name": "solc",
    "version": "0.8.21+commit.d9974bed.Emscripten.clang"
  },
  "schemaVersion": "3.4.16",
  "updatedAt": "2023-10-30T17:08:14.458Z",
  "networkType": "ethereum",
  "devdoc": {
    "kind": "dev",
    "methods": {},
    "version": 1
  },
  "userdoc": {
    "kind": "user",
    "methods": {},
    "version": 1
  }
}